{
  "contractName": "Vault",
  "abi": [
    {
      "inputs": [],
      "stateMutability": "nonpayable",
      "type": "constructor"
    },
    {
      "anonymous": false,
      "inputs": [
        {
          "indexed": true,
          "internalType": "address",
          "name": "previousOwner",
          "type": "address"
        },
        {
          "indexed": true,
          "internalType": "address",
          "name": "newOwner",
          "type": "address"
        }
      ],
      "name": "OwnershipTransferred",
      "type": "event"
    },
    {
      "anonymous": false,
      "inputs": [
        {
          "indexed": false,
          "internalType": "address",
          "name": "withdrawer",
          "type": "address"
        },
        {
          "indexed": false,
          "internalType": "uint256",
          "name": "amount",
          "type": "uint256"
        }
      ],
      "name": "Withdraw",
      "type": "event"
    },
    {
      "inputs": [
        {
          "internalType": "address",
          "name": "",
          "type": "address"
        },
        {
          "internalType": "uint256",
          "name": "",
          "type": "uint256"
        }
      ],
      "name": "depositsByTokenAddress",
      "outputs": [
        {
          "internalType": "uint256",
          "name": "",
          "type": "uint256"
        }
      ],
      "stateMutability": "view",
      "type": "function",
      "constant": true
    },
    {
      "inputs": [
        {
          "internalType": "address",
          "name": "",
          "type": "address"
        },
        {
          "internalType": "uint256",
          "name": "",
          "type": "uint256"
        }
      ],
      "name": "depositsByWithdrawers",
      "outputs": [
        {
          "internalType": "uint256",
          "name": "",
          "type": "uint256"
        }
      ],
      "stateMutability": "view",
      "type": "function",
      "constant": true
    },
    {
      "inputs": [],
      "name": "depositsCount",
      "outputs": [
        {
          "internalType": "uint256",
          "name": "",
          "type": "uint256"
        }
      ],
      "stateMutability": "view",
      "type": "function",
      "constant": true
    },
    {
      "inputs": [],
      "name": "helpiMarketingAddress",
      "outputs": [
        {
          "internalType": "address",
          "name": "",
          "type": "address"
        }
      ],
      "stateMutability": "view",
      "type": "function",
      "constant": true
    },
    {
      "inputs": [
        {
          "internalType": "uint256",
          "name": "",
          "type": "uint256"
        }
      ],
      "name": "lockedToken",
      "outputs": [
        {
          "internalType": "contract IERC20",
          "name": "token",
          "type": "address"
        },
        {
          "internalType": "address",
          "name": "withdrawer",
          "type": "address"
        },
        {
          "internalType": "uint256",
          "name": "amount",
          "type": "uint256"
        },
        {
          "internalType": "uint256",
          "name": "unlockTimestamp",
          "type": "uint256"
        },
        {
          "internalType": "bool",
          "name": "withdrawn",
          "type": "bool"
        },
        {
          "internalType": "bool",
          "name": "deposited",
          "type": "bool"
        }
      ],
      "stateMutability": "view",
      "type": "function",
      "constant": true
    },
    {
      "inputs": [],
      "name": "owner",
      "outputs": [
        {
          "internalType": "address",
          "name": "",
          "type": "address"
        }
      ],
      "stateMutability": "view",
      "type": "function",
      "constant": true
    },
    {
      "inputs": [],
      "name": "renounceOwnership",
      "outputs": [],
      "stateMutability": "nonpayable",
      "type": "function"
    },
    {
      "inputs": [
        {
          "internalType": "address",
          "name": "newOwner",
          "type": "address"
        }
      ],
      "name": "transferOwnership",
      "outputs": [],
      "stateMutability": "nonpayable",
      "type": "function"
    },
    {
      "inputs": [
        {
          "internalType": "address",
          "name": "",
          "type": "address"
        },
        {
          "internalType": "address",
          "name": "",
          "type": "address"
        }
      ],
      "name": "walletTokenBalance",
      "outputs": [
        {
          "internalType": "uint256",
          "name": "",
          "type": "uint256"
        }
      ],
      "stateMutability": "view",
      "type": "function",
      "constant": true
    },
    {
      "inputs": [
        {
          "internalType": "contract IERC20",
          "name": "_token",
          "type": "address"
        },
        {
          "internalType": "address",
          "name": "_withdrawer",
          "type": "address"
        },
        {
          "internalType": "uint256",
          "name": "_amount",
          "type": "uint256"
        },
        {
          "internalType": "uint256",
          "name": "_unlockTimestamp",
          "type": "uint256"
        }
      ],
      "name": "lockTokens",
      "outputs": [
        {
          "internalType": "uint256",
          "name": "_id",
          "type": "uint256"
        }
      ],
      "stateMutability": "nonpayable",
      "type": "function"
    },
    {
      "inputs": [
        {
          "internalType": "uint256",
          "name": "_id",
          "type": "uint256"
        }
      ],
      "name": "withdrawTokens",
      "outputs": [],
      "stateMutability": "nonpayable",
      "type": "function"
    },
    {
      "inputs": [
        {
          "internalType": "address",
          "name": "_id",
          "type": "address"
        }
      ],
      "name": "getDepositsByTokenAddress",
      "outputs": [
        {
          "internalType": "uint256[]",
          "name": "",
          "type": "uint256[]"
        }
      ],
      "stateMutability": "view",
      "type": "function",
      "constant": true
    },
    {
      "inputs": [
        {
          "internalType": "address",
          "name": "_token",
          "type": "address"
        },
        {
          "internalType": "address",
          "name": "_withdrawer",
          "type": "address"
        }
      ],
      "name": "getDepositsByWithdrawer",
      "outputs": [
        {
          "internalType": "uint256",
          "name": "",
          "type": "uint256"
        }
      ],
      "stateMutability": "view",
      "type": "function",
      "constant": true
    },
    {
      "inputs": [
        {
          "internalType": "address",
          "name": "_withdrawer",
          "type": "address"
        }
      ],
      "name": "getVaultsByWithdrawer",
      "outputs": [
        {
          "internalType": "uint256[]",
          "name": "",
          "type": "uint256[]"
        }
      ],
      "stateMutability": "view",
      "type": "function",
      "constant": true
    },
    {
      "inputs": [
        {
          "internalType": "uint256",
          "name": "_id",
          "type": "uint256"
        }
      ],
      "name": "getVaultById",
      "outputs": [
        {
          "components": [
            {
              "internalType": "contract IERC20",
              "name": "token",
              "type": "address"
            },
            {
              "internalType": "address",
              "name": "withdrawer",
              "type": "address"
            },
            {
              "internalType": "uint256",
              "name": "amount",
              "type": "uint256"
            },
            {
              "internalType": "uint256",
              "name": "unlockTimestamp",
              "type": "uint256"
            },
            {
              "internalType": "bool",
              "name": "withdrawn",
              "type": "bool"
            },
            {
              "internalType": "bool",
              "name": "deposited",
              "type": "bool"
            }
          ],
          "internalType": "struct Vault.Items",
          "name": "",
          "type": "tuple"
        }
      ],
      "stateMutability": "view",
      "type": "function",
      "constant": true
    },
    {
      "inputs": [
        {
          "internalType": "address",
          "name": "_token",
          "type": "address"
        }
      ],
      "name": "getTokenTotalLockedBalance",
      "outputs": [
        {
          "internalType": "uint256",
          "name": "",
          "type": "uint256"
        }
      ],
      "stateMutability": "view",
      "type": "function",
      "constant": true
    }
  ],
  "bytecode": "0x60806040523480156200001157600080fd5b5062000032620000266200003860201b60201c565b6200004060201b60201c565b62000104565b600033905090565b60008060009054906101000a900473ffffffffffffffffffffffffffffffffffffffff169050816000806101000a81548173ffffffffffffffffffffffffffffffffffffffff021916908373ffffffffffffffffffffffffffffffffffffffff1602179055508173ffffffffffffffffffffffffffffffffffffffff168173ffffffffffffffffffffffffffffffffffffffff167f8be0079c531659141344cd1fd0a4f28419497f9722a3daafe3b4186f6b6457e060405160405180910390a35050565b61265680620001146000396000f3fe608060405234801561001057600080fd5b50600436106101005760003560e01c806386f65a2211610097578063b78a153211610066578063b78a1532146102d5578063b9e7df1c14610305578063bb941cff14610335578063f2fde38b1461036a57610100565b806386f65a22146102275780638da5cb5b146102575780639470877614610275578063aa9ce2e6146102a557610100565b8063715018a6116100d3578063715018a61461019f57806371546b81146101a957806374e7ff9e146101d95780637d533c1e146101f757610100565b8063315a095d146101055780633fd97b9b146101215780634506e935146101515780636a8003301461016f575b600080fd5b61011f600480360381019061011a91906119a0565b610386565b005b61013b600480360381019061013691906118d8565b6107d3565b60405161014891906120a7565b60405180910390f35b610159610804565b60405161016691906120a7565b60405180910390f35b6101896004803603810190610184919061189c565b61080a565b60405161019691906120a7565b60405180910390f35b6101a7610891565b005b6101c360048036038101906101be9190611873565b610919565b6040516101d09190611e47565b60405180910390f35b6101e16109b0565b6040516101ee9190611da3565b60405180910390f35b610211600480360381019061020c919061193d565b6109d6565b60405161021e91906120a7565b60405180910390f35b610241600480360381019061023c9190611873565b610ed7565b60405161024e9190611e47565b60405180910390f35b61025f610f6e565b60405161026c9190611da3565b60405180910390f35b61028f600480360381019061028a91906119a0565b610f97565b60405161029c919061208c565b60405180910390f35b6102bf60048036038101906102ba91906118d8565b6110ba565b6040516102cc91906120a7565b60405180910390f35b6102ef60048036038101906102ea9190611873565b6110eb565b6040516102fc91906120a7565b60405180910390f35b61031f600480360381019061031a919061189c565b61117d565b60405161032c91906120a7565b60405180910390f35b61034f600480360381019061034a91906119a0565b6111a2565b60405161036196959493929190611e69565b60405180910390f35b610384600480360381019061037f9190611873565b611238565b005b60046000828152602001908152602001600020600301544210156103df576040517f08c379a00000000000000000000000000000000000000000000000000000000081526004016103d690611f2c565b60405180910390fd5b6004600082815260200190815260200160002060010160009054906101000a900473ffffffffffffffffffffffffffffffffffffffff1673ffffffffffffffffffffffffffffffffffffffff163373ffffffffffffffffffffffffffffffffffffffff1614610483576040517f08c379a000000000000000000000000000000000000000000000000000000000815260040161047a9061202c565b60405180910390fd5b6004600082815260200190815260200160002060040160019054906101000a900460ff166104e6576040517f08c379a00000000000000000000000000000000000000000000000000000000081526004016104dd90611eec565b60405180910390fd5b6004600082815260200190815260200160002060040160009054906101000a900460ff161561054a576040517f08c379a000000000000000000000000000000000000000000000000000000000815260040161054190611f4c565b60405180910390fd5b60016004600083815260200190815260200160002060040160006101000a81548160ff0219169083151502179055506106546004600083815260200190815260200160002060020154600560006004600086815260200190815260200160002060000160009054906101000a900473ffffffffffffffffffffffffffffffffffffffff1673ffffffffffffffffffffffffffffffffffffffff1673ffffffffffffffffffffffffffffffffffffffff16815260200190815260200160002060003373ffffffffffffffffffffffffffffffffffffffff1673ffffffffffffffffffffffffffffffffffffffff1681526020019081526020016000205461133090919063ffffffff16565b600560006004600085815260200190815260200160002060000160009054906101000a900473ffffffffffffffffffffffffffffffffffffffff1673ffffffffffffffffffffffffffffffffffffffff1673ffffffffffffffffffffffffffffffffffffffff16815260200190815260200160002060003373ffffffffffffffffffffffffffffffffffffffff1673ffffffffffffffffffffffffffffffffffffffff168152602001908152602001600020819055507f884edad9ce6fa2440d8a54cc123490eb96d2768479d49ff9c7366125a9424364336004600084815260200190815260200160002060020154604051610751929190611e1e565b60405180910390a16107d03360046000848152602001908152602001600020600201546004600085815260200190815260200160002060000160009054906101000a900473ffffffffffffffffffffffffffffffffffffffff1673ffffffffffffffffffffffffffffffffffffffff166113469092919063ffffffff16565b50565b600260205281600052604060002081815481106107ef57600080fd5b90600052602060002001600091509150505481565b60015481565b6000600560008473ffffffffffffffffffffffffffffffffffffffff1673ffffffffffffffffffffffffffffffffffffffff16815260200190815260200160002060008373ffffffffffffffffffffffffffffffffffffffff1673ffffffffffffffffffffffffffffffffffffffff16815260200190815260200160002054905092915050565b6108996113cc565b73ffffffffffffffffffffffffffffffffffffffff166108b7610f6e565b73ffffffffffffffffffffffffffffffffffffffff161461090d576040517f08c379a000000000000000000000000000000000000000000000000000000000815260040161090490611fac565b60405180910390fd5b61091760006113d4565b565b6060600360008373ffffffffffffffffffffffffffffffffffffffff1673ffffffffffffffffffffffffffffffffffffffff1681526020019081526020016000208054806020026020016040519081016040528092919081815260200182805480156109a457602002820191906000526020600020905b815481526020019060010190808311610990575b50505050509050919050565b600660009054906101000a900473ffffffffffffffffffffffffffffffffffffffff1681565b60006101f48311610a1c576040517f08c379a0000000000000000000000000000000000000000000000000000000008152600401610a139061204c565b60405180910390fd5b6402540be4008210610a63576040517f08c379a0000000000000000000000000000000000000000000000000000000008152600401610a5a9061200c565b60405180910390fd5b428211610aa5576040517f08c379a0000000000000000000000000000000000000000000000000000000008152600401610a9c90611fcc565b60405180910390fd5b828573ffffffffffffffffffffffffffffffffffffffff1663dd62ed3e33306040518363ffffffff1660e01b8152600401610ae1929190611dbe565b60206040518083038186803b158015610af957600080fd5b505afa158015610b0d573d6000803e3d6000fd5b505050506040513d601f19601f82011682018060405250810190610b3191906119c9565b1015610b72576040517f08c379a0000000000000000000000000000000000000000000000000000000008152600401610b6990611f8c565b60405180910390fd5b610b9f3330858873ffffffffffffffffffffffffffffffffffffffff16611498909392919063ffffffff16565b610c2e83600560008873ffffffffffffffffffffffffffffffffffffffff1673ffffffffffffffffffffffffffffffffffffffff16815260200190815260200160002060003373ffffffffffffffffffffffffffffffffffffffff1673ffffffffffffffffffffffffffffffffffffffff1681526020019081526020016000205461152190919063ffffffff16565b600560008773ffffffffffffffffffffffffffffffffffffffff1673ffffffffffffffffffffffffffffffffffffffff16815260200190815260200160002060003373ffffffffffffffffffffffffffffffffffffffff1673ffffffffffffffffffffffffffffffffffffffff16815260200190815260200160002081905550600160008154610cbd90612268565b9190508190559050846004600083815260200190815260200160002060000160006101000a81548173ffffffffffffffffffffffffffffffffffffffff021916908373ffffffffffffffffffffffffffffffffffffffff160217905550836004600083815260200190815260200160002060010160006101000a81548173ffffffffffffffffffffffffffffffffffffffff021916908373ffffffffffffffffffffffffffffffffffffffff16021790555082600460008381526020019081526020016000206002018190555081600460008381526020019081526020016000206003018190555060006004600083815260200190815260200160002060040160006101000a81548160ff02191690831515021790555060016004600083815260200190815260200160002060040160016101000a81548160ff021916908315150217905550600260008673ffffffffffffffffffffffffffffffffffffffff1673ffffffffffffffffffffffffffffffffffffffff168152602001908152602001600020819080600181540180825580915050600190039060005260206000200160009091909190915055600360008573ffffffffffffffffffffffffffffffffffffffff1673ffffffffffffffffffffffffffffffffffffffff168152602001908152602001600020819080600181540180825580915050600190039060005260206000200160009091909190915055949350505050565b6060600260008373ffffffffffffffffffffffffffffffffffffffff1673ffffffffffffffffffffffffffffffffffffffff168152602001908152602001600020805480602002602001604051908101604052809291908181526020018280548015610f6257602002820191906000526020600020905b815481526020019060010190808311610f4e575b50505050509050919050565b60008060009054906101000a900473ffffffffffffffffffffffffffffffffffffffff16905090565b610f9f6117a4565b600460008381526020019081526020016000206040518060c00160405290816000820160009054906101000a900473ffffffffffffffffffffffffffffffffffffffff1673ffffffffffffffffffffffffffffffffffffffff1673ffffffffffffffffffffffffffffffffffffffff1681526020016001820160009054906101000a900473ffffffffffffffffffffffffffffffffffffffff1673ffffffffffffffffffffffffffffffffffffffff1673ffffffffffffffffffffffffffffffffffffffff16815260200160028201548152602001600382015481526020016004820160009054906101000a900460ff161515151581526020016004820160019054906101000a900460ff1615151515815250509050919050565b600360205281600052604060002081815481106110d657600080fd5b90600052602060002001600091509150505481565b60008173ffffffffffffffffffffffffffffffffffffffff166370a08231306040518263ffffffff1660e01b81526004016111269190611da3565b60206040518083038186803b15801561113e57600080fd5b505afa158015611152573d6000803e3d6000fd5b505050506040513d601f19601f8201168201806040525081019061117691906119c9565b9050919050565b6005602052816000526040600020602052806000526040600020600091509150505481565b60046020528060005260406000206000915090508060000160009054906101000a900473ffffffffffffffffffffffffffffffffffffffff16908060010160009054906101000a900473ffffffffffffffffffffffffffffffffffffffff16908060020154908060030154908060040160009054906101000a900460ff16908060040160019054906101000a900460ff16905086565b6112406113cc565b73ffffffffffffffffffffffffffffffffffffffff1661125e610f6e565b73ffffffffffffffffffffffffffffffffffffffff16146112b4576040517f08c379a00000000000000000000000000000000000000000000000000000000081526004016112ab90611fac565b60405180910390fd5b600073ffffffffffffffffffffffffffffffffffffffff168173ffffffffffffffffffffffffffffffffffffffff161415611324576040517f08c379a000000000000000000000000000000000000000000000000000000000815260040161131b90611f0c565b60405180910390fd5b61132d816113d4565b50565b6000818361133e9190612183565b905092915050565b6113c78363a9059cbb60e01b8484604051602401611365929190611e1e565b604051602081830303815290604052907bffffffffffffffffffffffffffffffffffffffffffffffffffffffff19166020820180517bffffffffffffffffffffffffffffffffffffffffffffffffffffffff8381831617835250505050611537565b505050565b600033905090565b60008060009054906101000a900473ffffffffffffffffffffffffffffffffffffffff169050816000806101000a81548173ffffffffffffffffffffffffffffffffffffffff021916908373ffffffffffffffffffffffffffffffffffffffff1602179055508173ffffffffffffffffffffffffffffffffffffffff168173ffffffffffffffffffffffffffffffffffffffff167f8be0079c531659141344cd1fd0a4f28419497f9722a3daafe3b4186f6b6457e060405160405180910390a35050565b61151b846323b872dd60e01b8585856040516024016114b993929190611de7565b604051602081830303815290604052907bffffffffffffffffffffffffffffffffffffffffffffffffffffffff19166020820180517bffffffffffffffffffffffffffffffffffffffffffffffffffffffff8381831617835250505050611537565b50505050565b6000818361152f919061212d565b905092915050565b6000611599826040518060400160405280602081526020017f5361666545524332303a206c6f772d6c6576656c2063616c6c206661696c65648152508573ffffffffffffffffffffffffffffffffffffffff166115fe9092919063ffffffff16565b90506000815111156115f957808060200190518101906115b99190611914565b6115f8576040517f08c379a00000000000000000000000000000000000000000000000000000000081526004016115ef9061206c565b60405180910390fd5b5b505050565b606061160d8484600085611616565b90509392505050565b60608247101561165b576040517f08c379a000000000000000000000000000000000000000000000000000000000815260040161165290611f6c565b60405180910390fd5b6116648561172a565b6116a3576040517f08c379a000000000000000000000000000000000000000000000000000000000815260040161169a90611fec565b60405180910390fd5b6000808673ffffffffffffffffffffffffffffffffffffffff1685876040516116cc9190611d8c565b60006040518083038185875af1925050503d8060008114611709576040519150601f19603f3d011682016040523d82523d6000602084013e61170e565b606091505b509150915061171e82828661173d565b92505050949350505050565b600080823b905060008111915050919050565b6060831561174d5782905061179d565b6000835111156117605782518084602001fd5b816040517f08c379a00000000000000000000000000000000000000000000000000000000081526004016117949190611eca565b60405180910390fd5b9392505050565b6040518060c00160405280600073ffffffffffffffffffffffffffffffffffffffff168152602001600073ffffffffffffffffffffffffffffffffffffffff16815260200160008152602001600081526020016000151581526020016000151581525090565b600081359050611819816125c4565b92915050565b60008151905061182e816125db565b92915050565b600081359050611843816125f2565b92915050565b60008135905061185881612609565b92915050565b60008151905061186d81612609565b92915050565b60006020828403121561188557600080fd5b60006118938482850161180a565b91505092915050565b600080604083850312156118af57600080fd5b60006118bd8582860161180a565b92505060206118ce8582860161180a565b9150509250929050565b600080604083850312156118eb57600080fd5b60006118f98582860161180a565b925050602061190a85828601611849565b9150509250929050565b60006020828403121561192657600080fd5b60006119348482850161181f565b91505092915050565b6000806000806080858703121561195357600080fd5b600061196187828801611834565b94505060206119728782880161180a565b935050604061198387828801611849565b925050606061199487828801611849565b91505092959194509250565b6000602082840312156119b257600080fd5b60006119c084828501611849565b91505092915050565b6000602082840312156119db57600080fd5b60006119e98482850161185e565b91505092915050565b60006119fe8383611d6e565b60208301905092915050565b611a13816121b7565b82525050565b611a22816121b7565b82525050565b6000611a33826120d2565b611a3d8185612100565b9350611a48836120c2565b8060005b83811015611a79578151611a6088826119f2565b9750611a6b836120f3565b925050600181019050611a4c565b5085935050505092915050565b611a8f816121c9565b82525050565b611a9e816121c9565b82525050565b6000611aaf826120dd565b611ab98185612111565b9350611ac9818560208601612235565b80840191505092915050565b611ade81612211565b82525050565b611aed81612211565b82525050565b6000611afe826120e8565b611b08818561211c565b9350611b18818560208601612235565b611b21816122e0565b840191505092915050565b6000611b39601d8361211c565b9150611b44826122f1565b602082019050919050565b6000611b5c60268361211c565b9150611b678261231a565b604082019050919050565b6000611b7f60188361211c565b9150611b8a82612369565b602082019050919050565b6000611ba2601d8361211c565b9150611bad82612392565b602082019050919050565b6000611bc560268361211c565b9150611bd0826123bb565b604082019050919050565b6000611be860158361211c565b9150611bf38261240a565b602082019050919050565b6000611c0b60208361211c565b9150611c1682612433565b602082019050919050565b6000611c2e60268361211c565b9150611c398261245c565b604082019050919050565b6000611c51601d8361211c565b9150611c5c826124ab565b602082019050919050565b6000611c7460238361211c565b9150611c7f826124d4565b604082019050919050565b6000611c97601b8361211c565b9150611ca282612523565b602082019050919050565b6000611cba60158361211c565b9150611cc58261254c565b602082019050919050565b6000611cdd602a8361211c565b9150611ce882612575565b604082019050919050565b60c082016000820151611d096000850182611ad5565b506020820151611d1c6020850182611a0a565b506040820151611d2f6040850182611d6e565b506060820151611d426060850182611d6e565b506080820151611d556080850182611a86565b5060a0820151611d6860a0850182611a86565b50505050565b611d7781612207565b82525050565b611d8681612207565b82525050565b6000611d988284611aa4565b915081905092915050565b6000602082019050611db86000830184611a19565b92915050565b6000604082019050611dd36000830185611a19565b611de06020830184611a19565b9392505050565b6000606082019050611dfc6000830186611a19565b611e096020830185611a19565b611e166040830184611d7d565b949350505050565b6000604082019050611e336000830185611a19565b611e406020830184611d7d565b9392505050565b60006020820190508181036000830152611e618184611a28565b905092915050565b600060c082019050611e7e6000830189611ae4565b611e8b6020830188611a19565b611e986040830187611d7d565b611ea56060830186611d7d565b611eb26080830185611a95565b611ebf60a0830184611a95565b979650505050505050565b60006020820190508181036000830152611ee48184611af3565b905092915050565b60006020820190508181036000830152611f0581611b2c565b9050919050565b60006020820190508181036000830152611f2581611b4f565b9050919050565b60006020820190508181036000830152611f4581611b72565b9050919050565b60006020820190508181036000830152611f6581611b95565b9050919050565b60006020820190508181036000830152611f8581611bb8565b9050919050565b60006020820190508181036000830152611fa581611bdb565b9050919050565b60006020820190508181036000830152611fc581611bfe565b9050919050565b60006020820190508181036000830152611fe581611c21565b9050919050565b6000602082019050818103600083015261200581611c44565b9050919050565b6000602082019050818103600083015261202581611c67565b9050919050565b6000602082019050818103600083015261204581611c8a565b9050919050565b6000602082019050818103600083015261206581611cad565b9050919050565b6000602082019050818103600083015261208581611cd0565b9050919050565b600060c0820190506120a16000830184611cf3565b92915050565b60006020820190506120bc6000830184611d7d565b92915050565b6000819050602082019050919050565b600081519050919050565b600081519050919050565b600081519050919050565b6000602082019050919050565b600082825260208201905092915050565b600081905092915050565b600082825260208201905092915050565b600061213882612207565b915061214383612207565b9250827fffffffffffffffffffffffffffffffffffffffffffffffffffffffffffffffff03821115612178576121776122b1565b5b828201905092915050565b600061218e82612207565b915061219983612207565b9250828210156121ac576121ab6122b1565b5b828203905092915050565b60006121c2826121e7565b9050919050565b60008115159050919050565b60006121e0826121b7565b9050919050565b600073ffffffffffffffffffffffffffffffffffffffff82169050919050565b6000819050919050565b600061221c82612223565b9050919050565b600061222e826121e7565b9050919050565b60005b83811015612253578082015181840152602081019050612238565b83811115612262576000848401525b50505050565b600061227382612207565b91507fffffffffffffffffffffffffffffffffffffffffffffffffffffffffffffffff8214156122a6576122a56122b1565b5b600182019050919050565b7f4e487b7100000000000000000000000000000000000000000000000000000000600052601160045260246000fd5b6000601f19601f8301169050919050565b7f546f6b656e7320617265206e6f7420796574206465706f736974656421000000600082015250565b7f4f776e61626c653a206e6577206f776e657220697320746865207a65726f206160008201527f6464726573730000000000000000000000000000000000000000000000000000602082015250565b7f546f6b656e7320617265207374696c6c206c6f636b6564210000000000000000600082015250565b7f546f6b656e732061726520616c72656164792077697468647261776e21000000600082015250565b7f416464726573733a20696e73756666696369656e742062616c616e636520666f60008201527f722063616c6c0000000000000000000000000000000000000000000000000000602082015250565b7f417070726f766520746f6b656e73206669727374210000000000000000000000600082015250565b7f4f776e61626c653a2063616c6c6572206973206e6f7420746865206f776e6572600082015250565b7f556e6c6f636b2074696d657374616d70206973206e6f7420696e20746865206660008201527f7574757265210000000000000000000000000000000000000000000000000000602082015250565b7f416464726573733a2063616c6c20746f206e6f6e2d636f6e7472616374000000600082015250565b7f556e6c6f636b2074696d657374616d70206973206e6f7420696e207365636f6e60008201527f6473210000000000000000000000000000000000000000000000000000000000602082015250565b7f596f7520617265206e6f74207468652077697468647261776572210000000000600082015250565b7f546f6b656e20616d6f756e7420746f6f206c6f77210000000000000000000000600082015250565b7f5361666545524332303a204552433230206f7065726174696f6e20646964206e60008201527f6f74207375636365656400000000000000000000000000000000000000000000602082015250565b6125cd816121b7565b81146125d857600080fd5b50565b6125e4816121c9565b81146125ef57600080fd5b50565b6125fb816121d5565b811461260657600080fd5b50565b61261281612207565b811461261d57600080fd5b5056fea26469706673582212204461991cb1dec19ca949847345cc16f94dc1bf1fab8fe6114f35610dfec0673864736f6c63430008030033",
  "immutableReferences": {},
  "source": "// SPDX-License-Identifier: MIT\n\npragma solidity ^0.8.0;\n\nimport \"@openzeppelin/contracts/token/ERC20/IERC20.sol\";\nimport \"@openzeppelin/contracts/token/ERC20/utils/SafeERC20.sol\";\nimport \"@openzeppelin/contracts/utils/math/SafeMath.sol\";\nimport \"@openzeppelin/contracts/access/Ownable.sol\";\n\ncontract Vault is Ownable {\n    using SafeMath for uint256;\n    using SafeERC20 for IERC20;\n\n    struct Items {\n        IERC20 token;\n        address withdrawer;\n        uint256 amount;\n        uint256 unlockTimestamp;\n        bool withdrawn;\n        bool deposited;\n    }\n\n    uint256 public depositsCount;\n    mapping (address => uint256[]) public depositsByTokenAddress;\n    mapping (address => uint256[]) public depositsByWithdrawers;\n    mapping (uint256 => Items) public lockedToken;\n    mapping (address => mapping(address => uint256)) public walletTokenBalance;\n\n    address public helpiMarketingAddress;\n\n    event Withdraw(address withdrawer, uint256 amount);\n\n    constructor() {\n\n    }\n\n    function lockTokens(IERC20 _token, address _withdrawer, uint256 _amount, uint256 _unlockTimestamp) external returns (uint256 _id) {\n        require(_amount > 500, 'Token amount too low!');\n        require(_unlockTimestamp < 10000000000, 'Unlock timestamp is not in seconds!');\n        require(_unlockTimestamp > block.timestamp, 'Unlock timestamp is not in the future!');\n        require(_token.allowance(msg.sender, address(this)) >= _amount, 'Approve tokens first!');\n        _token.safeTransferFrom(msg.sender, address(this), _amount);\n\n        walletTokenBalance[address(_token)][msg.sender] = walletTokenBalance[address(_token)][msg.sender].add(_amount);\n\n        _id = ++depositsCount;\n        lockedToken[_id].token = _token;\n        lockedToken[_id].withdrawer = _withdrawer;\n        lockedToken[_id].amount = _amount;\n        lockedToken[_id].unlockTimestamp = _unlockTimestamp;\n        lockedToken[_id].withdrawn = false;\n        lockedToken[_id].deposited = true;\n\n        depositsByTokenAddress[address(_token)].push(_id);\n        depositsByWithdrawers[_withdrawer].push(_id);\n        return _id;\n    }\n\n    function withdrawTokens(uint256 _id) external {\n        require(block.timestamp >= lockedToken[_id].unlockTimestamp, 'Tokens are still locked!');\n        require(msg.sender == lockedToken[_id].withdrawer, 'You are not the withdrawer!');\n        require(lockedToken[_id].deposited, 'Tokens are not yet deposited!');\n        require(!lockedToken[_id].withdrawn, 'Tokens are already withdrawn!');\n\n        lockedToken[_id].withdrawn = true;\n\n        walletTokenBalance[address(lockedToken[_id].token)][msg.sender] = walletTokenBalance[address(lockedToken[_id].token)][msg.sender].sub(lockedToken[_id].amount);\n\n        emit Withdraw(msg.sender, lockedToken[_id].amount);\n        lockedToken[_id].token.safeTransfer(msg.sender, lockedToken[_id].amount);\n    }\n\n    function getDepositsByTokenAddress(address _id) view external returns (uint256[] memory) {\n        return depositsByTokenAddress[_id];\n    }\n\n    function getDepositsByWithdrawer(address _token, address _withdrawer) view external returns (uint256) {\n        return walletTokenBalance[_token][_withdrawer];\n    }\n\n    function getVaultsByWithdrawer(address _withdrawer) view external returns (uint256[] memory) {\n        return depositsByWithdrawers[_withdrawer];\n    }\n\n    function getVaultById(uint256 _id) view external returns (Items memory) {\n        return lockedToken[_id];\n    }\n\n    function getTokenTotalLockedBalance(address _token) view external returns (uint256) {\n       return IERC20(_token).balanceOf(address(this));\n    }\n}",
  "sourcePath": "C:/Users/ezdin.gharbi/Desktop/playground/vault-dapp/contracts/Vault.sol",
  "compiler": {
    "name": "solc",
    "version": "0.8.3+commit.8d00100c.Emscripten.clang"
  },
  "schemaVersion": "3.4.1",
  "updatedAt": "2022-01-03T23:56:13.331Z",
  "networkType": "ethereum",
  "devdoc": {
    "kind": "dev",
    "methods": {
      "owner()": {
        "details": "Returns the address of the current owner."
      },
      "renounceOwnership()": {
        "details": "Leaves the contract without owner. It will not be possible to call `onlyOwner` functions anymore. Can only be called by the current owner. NOTE: Renouncing ownership will leave the contract without an owner, thereby removing any functionality that is only available to the owner."
      },
      "transferOwnership(address)": {
        "details": "Transfers ownership of the contract to a new account (`newOwner`). Can only be called by the current owner."
      }
    },
    "version": 1
  },
  "userdoc": {
    "kind": "user",
    "methods": {},
    "version": 1
  }
}